{
  "_format": "hh-sol-artifact-1",
  "contractName": "CrowdFunding",
  "sourceName": "contracts/CrowdFunding.sol",
  "abi": [
    {
      "inputs": [
        {
          "internalType": "address",
          "name": "_wethGatewayAddress",
          "type": "address"
        },
        {
          "internalType": "address",
          "name": "_aavePoolAddress",
          "type": "address"
        }
      ],
      "stateMutability": "nonpayable",
      "type": "constructor"
    },
    {
      "anonymous": false,
      "inputs": [
        {
          "indexed": false,
          "internalType": "uint256",
          "name": "amount",
          "type": "uint256"
        }
      ],
      "name": "FundsInvested",
      "type": "event"
    },
    {
      "anonymous": false,
      "inputs": [
        {
          "indexed": false,
          "internalType": "uint256",
          "name": "amount",
          "type": "uint256"
        }
      ],
      "name": "FundsReclaimed",
      "type": "event"
    },
    {
      "inputs": [],
      "name": "aavePool",
      "outputs": [
        {
          "internalType": "address",
          "name": "",
          "type": "address"
        }
      ],
      "stateMutability": "view",
      "type": "function"
    },
    {
      "inputs": [
        {
          "internalType": "uint256",
          "name": "",
          "type": "uint256"
        }
      ],
      "name": "campaigns",
      "outputs": [
        {
          "internalType": "address",
          "name": "owner",
          "type": "address"
        },
        {
          "internalType": "string",
          "name": "title",
          "type": "string"
        },
        {
          "internalType": "string",
          "name": "description",
          "type": "string"
        },
        {
          "internalType": "uint256",
          "name": "target",
          "type": "uint256"
        },
        {
          "internalType": "uint256",
          "name": "deadline",
          "type": "uint256"
        },
        {
          "internalType": "uint256",
          "name": "amountCollected",
          "type": "uint256"
        },
        {
          "internalType": "string",
          "name": "image",
          "type": "string"
        },
        {
          "internalType": "bool",
          "name": "claimed",
          "type": "bool"
        }
      ],
      "stateMutability": "view",
      "type": "function"
    },
    {
      "inputs": [
        {
          "internalType": "uint256",
          "name": "_id",
          "type": "uint256"
        }
      ],
      "name": "claimFunds",
      "outputs": [],
      "stateMutability": "nonpayable",
      "type": "function"
    },
    {
      "inputs": [
        {
          "internalType": "address",
          "name": "_owner",
          "type": "address"
        },
        {
          "internalType": "string",
          "name": "_title",
          "type": "string"
        },
        {
          "internalType": "string",
          "name": "_description",
          "type": "string"
        },
        {
          "internalType": "uint256",
          "name": "_target",
          "type": "uint256"
        },
        {
          "internalType": "uint256",
          "name": "_deadline",
          "type": "uint256"
        },
        {
          "internalType": "string",
          "name": "_image",
          "type": "string"
        }
      ],
      "name": "createCampaign",
      "outputs": [
        {
          "internalType": "uint256",
          "name": "",
          "type": "uint256"
        }
      ],
      "stateMutability": "nonpayable",
      "type": "function"
    },
    {
      "inputs": [
        {
          "internalType": "uint256",
          "name": "_id",
          "type": "uint256"
        }
      ],
      "name": "donateToCampaign",
      "outputs": [],
      "stateMutability": "payable",
      "type": "function"
    },
    {
      "inputs": [],
      "name": "getCampaigns",
      "outputs": [
        {
          "components": [
            {
              "internalType": "address",
              "name": "owner",
              "type": "address"
            },
            {
              "internalType": "string",
              "name": "title",
              "type": "string"
            },
            {
              "internalType": "string",
              "name": "description",
              "type": "string"
            },
            {
              "internalType": "uint256",
              "name": "target",
              "type": "uint256"
            },
            {
              "internalType": "uint256",
              "name": "deadline",
              "type": "uint256"
            },
            {
              "internalType": "uint256",
              "name": "amountCollected",
              "type": "uint256"
            },
            {
              "internalType": "string",
              "name": "image",
              "type": "string"
            },
            {
              "internalType": "address[]",
              "name": "donators",
              "type": "address[]"
            },
            {
              "internalType": "uint256[]",
              "name": "donations",
              "type": "uint256[]"
            },
            {
              "internalType": "bool",
              "name": "claimed",
              "type": "bool"
            }
          ],
          "internalType": "struct CrowdFunding.Campaign[]",
          "name": "",
          "type": "tuple[]"
        }
      ],
      "stateMutability": "view",
      "type": "function"
    },
    {
      "inputs": [],
      "name": "getContractBalance",
      "outputs": [
        {
          "internalType": "uint256",
          "name": "",
          "type": "uint256"
        }
      ],
      "stateMutability": "view",
      "type": "function"
    },
    {
      "inputs": [
        {
          "internalType": "uint256",
          "name": "_id",
          "type": "uint256"
        }
      ],
      "name": "getDonators",
      "outputs": [
        {
          "internalType": "address[]",
          "name": "",
          "type": "address[]"
        },
        {
          "internalType": "uint256[]",
          "name": "",
          "type": "uint256[]"
        }
      ],
      "stateMutability": "view",
      "type": "function"
    },
    {
      "inputs": [],
      "name": "invest",
      "outputs": [],
      "stateMutability": "payable",
      "type": "function"
    },
    {
      "inputs": [],
      "name": "numberOfCampaigns",
      "outputs": [
        {
          "internalType": "uint256",
          "name": "",
          "type": "uint256"
        }
      ],
      "stateMutability": "view",
      "type": "function"
    },
    {
      "inputs": [],
      "name": "owner",
      "outputs": [
        {
          "internalType": "address",
          "name": "",
          "type": "address"
        }
      ],
      "stateMutability": "view",
      "type": "function"
    },
    {
      "inputs": [
        {
          "internalType": "uint256",
          "name": "amount",
          "type": "uint256"
        }
      ],
      "name": "reclaim",
      "outputs": [],
      "stateMutability": "nonpayable",
      "type": "function"
    },
    {
      "inputs": [
        {
          "internalType": "uint256",
          "name": "_id",
          "type": "uint256"
        }
      ],
      "name": "refundDonors",
      "outputs": [],
      "stateMutability": "nonpayable",
      "type": "function"
    },
    {
      "inputs": [],
      "name": "wethGateway",
      "outputs": [
        {
          "internalType": "address",
          "name": "",
          "type": "address"
        }
      ],
      "stateMutability": "view",
      "type": "function"
    },
    {
      "stateMutability": "payable",
      "type": "receive"
    }
  ],
  "bytecode": "0x60c060405260006002553480156200001657600080fd5b5060405162001c0638038062001c068339810160408190526200003991620000f3565b6001600055600380546001600160a01b031916331790556001600160a01b03828116608081905290821660a052158015906200007d57506001600160a01b03811615155b620000ce5760405162461bcd60e51b815260206004820152601660248201527f496e76616c696420416176652061646472657373657300000000000000000000604482015260640160405180910390fd5b50506200012b565b80516001600160a01b0381168114620000ee57600080fd5b919050565b600080604083850312156200010757600080fd5b6200011283620000d6565b91506200012260208401620000d6565b90509250929050565b60805160a051611a996200016d6000396000818161026a015281816108a001526112590152600081816102c0015281816108d5015261128e0152611a996000f3fe6080604052600436106100e15760003560e01c80636f9fb98a1161007f578063a03e4bc311610059578063a03e4bc314610258578063a6b036331461028c578063c5e10eef146102ae578063e8b5e51f146102e257600080fd5b80636f9fb98a146101ed5780638da5cb5b146102005780639943e3a11461023857600080fd5b80631b55e338116100bb5780631b55e338146101785780632dabbeed1461019a57806342a4fda8146101ba578063608bdc08146101cd57600080fd5b806307ca140d146100ed5780630fa91fa914610116578063141961bc1461014457600080fd5b366100e857005b600080fd5b3480156100f957600080fd5b5061010360025481565b6040519081526020015b60405180910390f35b34801561012257600080fd5b50610136610131366004611461565b6102ea565b60405161010d92919061147a565b34801561015057600080fd5b5061016461015f366004611461565b6103bb565b60405161010d989796959493929190611544565b34801561018457600080fd5b50610198610193366004611461565b6105a2565b005b3480156101a657600080fd5b506101986101b5366004611461565b610814565b6101986101c8366004611461565b610974565b3480156101d957600080fd5b506101986101e8366004611461565b610a33565b3480156101f957600080fd5b5047610103565b34801561020c57600080fd5b50600354610220906001600160a01b031681565b6040516001600160a01b03909116815260200161010d565b34801561024457600080fd5b5061010361025336600461165e565b610ce5565b34801561026457600080fd5b506102207f000000000000000000000000000000000000000000000000000000000000000081565b34801561029857600080fd5b506102a1610dd2565b60405161010d919061178d565b3480156102ba57600080fd5b506102207f000000000000000000000000000000000000000000000000000000000000000081565b61019861118a565b60008181526001602090815260409182902060078101805484518185028101850190955280855260609485949293600801929091849183018282801561035957602002820191906000526020600020905b81546001600160a01b0316815260019091019060200180831161033b575b50505050509150808054806020026020016040519081016040528092919081815260200182805480156103ab57602002820191906000526020600020905b815481526020019060010190808311610397575b5050505050905091509150915091565b6001602081905260009182526040909120805491810180546001600160a01b03909316926103e8906118b3565b80601f0160208091040260200160405190810160405280929190818152602001828054610414906118b3565b80156104615780601f1061043657610100808354040283529160200191610461565b820191906000526020600020905b81548152906001019060200180831161044457829003601f168201915b505050505090806002018054610476906118b3565b80601f01602080910402602001604051908101604052809291908181526020018280546104a2906118b3565b80156104ef5780601f106104c4576101008083540402835291602001916104ef565b820191906000526020600020905b8154815290600101906020018083116104d257829003601f168201915b505050505090806003015490806004015490806005015490806006018054610516906118b3565b80601f0160208091040260200160405190810160405280929190818152602001828054610542906118b3565b801561058f5780601f106105645761010080835404028352916020019161058f565b820191906000526020600020905b81548152906001019060200180831161057257829003601f168201915b5050506009909301549192505060ff1688565b6105aa611332565b600081815260016020526040902080546001600160a01b031633146106275760405162461bcd60e51b815260206004820152602860248201527f4f6e6c79207468652063616d706169676e206f776e65722063616e20636c61696044820152673690333ab732399760c11b60648201526084015b60405180910390fd5b8060040154421161067a5760405162461bcd60e51b815260206004820152601b60248201527f43616d706169676e20686173206e6f7420656e646564207965742e0000000000604482015260640161061e565b8060030154816005015410156106dc5760405162461bcd60e51b815260206004820152602160248201527f43616d706169676e20646964206e6f74206d65657420697473207461726765746044820152601760f91b606482015260840161061e565b600981015460ff16156107315760405162461bcd60e51b815260206004820181905260248201527f46756e6473206861766520616c7265616479206265656e20636c61696d65642e604482015260640161061e565b60058101805460009182905560098301805460ff1916600117905582546040519192916001600160a01b039091169083908381818185875af1925050503d806000811461079a576040519150601f19603f3d011682016040523d82523d6000602084013e61079f565b606091505b50509050806108045760405162461bcd60e51b815260206004820152602b60248201527f43726f776446756e64696e673a204661696c656420746f2073656e642066756e60448201526a3239903a379037bbb732b960a91b606482015260840161061e565b5050506108116001600055565b50565b61081c611332565b6003546001600160a01b031633146108895760405162461bcd60e51b815260206004820152602a60248201527f4f6e6c792074686520636f6e7472616374206f776e65722063616e207265636c60448201526930b4b690333ab732399760b11b606482015260840161061e565b604051630402806960e51b81526001600160a01b037f000000000000000000000000000000000000000000000000000000000000000081166004830152602482018390523060448301527f000000000000000000000000000000000000000000000000000000000000000016906380500d2090606401600060405180830381600087803b15801561091957600080fd5b505af115801561092d573d6000803e3d6000fd5b505050507f6246f936423733335c7889317bcefc2fe71363b2b87691f815e8367851010f2e8160405161096291815260200190565b60405180910390a16108116001600055565b61097c611332565b6000818152600160205260409020600481015434919042106109d65760405162461bcd60e51b815260206004820152601360248201527221b0b6b830b4b3b7103430b99032b73232b21760691b604482015260640161061e565b600781018054600181810183556000928352602080842090920180546001600160a01b03191633179055600884018054918201815583529120018290556005810154610a22908361138b565b600590910155506108116001600055565b610a3b611332565b600081815260016020526040902060048101544211610a9c5760405162461bcd60e51b815260206004820152601b60248201527f43616d706169676e20686173206e6f7420656e646564207965742e0000000000604482015260640161061e565b8060030154816005015410610b0e5760405162461bcd60e51b815260206004820152603260248201527f43616d706169676e206d657420697473207461726765742c2066756e6473206360448201527130b73737ba103132903932b33ab73232b21760711b606482015260840161061e565b600981015460ff1615610b755760405162461bcd60e51b815260206004820152602960248201527f46756e6473206861766520616c7265616479206265656e20636c61696d656420604482015268313c9037bbb732b91760b91b606482015260840161061e565b60005b6007820154811015610c99576000826007018281548110610b9b57610b9b6118e7565b60009182526020822001546008850180546001600160a01b0390921693509084908110610bca57610bca6118e7565b906000526020600020015490506000826001600160a01b03168260405160006040518083038185875af1925050503d8060008114610c24576040519150601f19603f3d011682016040523d82523d6000602084013e610c29565b606091505b5050905080610c7a5760405162461bcd60e51b815260206004820152601b60248201527f43726f776446756e64696e673a20526566756e64206661696c65640000000000604482015260640161061e565b6005850154610c8990836113a0565b6005860155505050600101610b78565b506040805160008152602081019182905251610cb99160078401916113ac565b506040805160008152602081019182905251610cd9916008840191611411565b50506108116001600055565b6000428311610d365760405162461bcd60e51b815260206004820152601f60248201527f446561646c696e65206d75737420626520696e20746865206675747572652e00604482015260640161061e565b600254600081815260016020819052604090912080546001600160a01b0319166001600160a01b038b16178155908101610d70898261194e565b5060028101610d7f888261194e565b5060038101869055600481018590556000600582015560068101610da3858261194e565b5060098101805460ff1916905560028054906000610dc083611a24565b90915550919998505050505050505050565b6060600060025467ffffffffffffffff811115610df157610df16115bb565b604051908082528060200260200182016040528015610e8357816020015b610e7060405180610140016040528060006001600160a01b0316815260200160608152602001606081526020016000815260200160008152602001600081526020016060815260200160608152602001606081526020016000151581525090565b815260200190600190039081610e0f5790505b50905060005b600254811015611184576000818152600160208181526040928390208351610140810190945280546001600160a01b03168452918201805491840191610ece906118b3565b80601f0160208091040260200160405190810160405280929190818152602001828054610efa906118b3565b8015610f475780601f10610f1c57610100808354040283529160200191610f47565b820191906000526020600020905b815481529060010190602001808311610f2a57829003601f168201915b50505050508152602001600282018054610f60906118b3565b80601f0160208091040260200160405190810160405280929190818152602001828054610f8c906118b3565b8015610fd95780601f10610fae57610100808354040283529160200191610fd9565b820191906000526020600020905b815481529060010190602001808311610fbc57829003601f168201915b50505050508152602001600382015481526020016004820154815260200160058201548152602001600682018054611010906118b3565b80601f016020809104026020016040519081016040528092919081815260200182805461103c906118b3565b80156110895780601f1061105e57610100808354040283529160200191611089565b820191906000526020600020905b81548152906001019060200180831161106c57829003601f168201915b50505050508152602001600782018054806020026020016040519081016040528092919081815260200182805480156110eb57602002820191906000526020600020905b81546001600160a01b031681526001909101906020018083116110cd575b505050505081526020016008820180548060200260200160405190810160405280929190818152602001828054801561114357602002820191906000526020600020905b81548152602001906001019080831161112f575b50505091835250506009919091015460ff1615156020909101528251839083908110611171576111716118e7565b6020908102919091010152600101610e89565b50919050565b611192611332565b6003546001600160a01b031633146111fe5760405162461bcd60e51b815260206004820152602960248201527f4f6e6c792074686520636f6e7472616374206f776e65722063616e20696e766560448201526839ba10333ab732399760b91b606482015260840161061e565b47806112425760405162461bcd60e51b8152602060048201526013602482015272273790333ab73239903a379034b73b32b9ba1760691b604482015260640161061e565b60405163474cf53d60e01b81526001600160a01b037f000000000000000000000000000000000000000000000000000000000000000081166004830152306024830152600060448301527f0000000000000000000000000000000000000000000000000000000000000000169063474cf53d9083906064016000604051808303818588803b1580156112d357600080fd5b505af11580156112e7573d6000803e3d6000fd5b50505050507f13a6b60e1baaf5c7ab3253113820bba7a9f6231303d6c0b650e60a033aae685a8160405161131d91815260200190565b60405180910390a1506113306001600055565b565b6002600054036113845760405162461bcd60e51b815260206004820152601f60248201527f5265656e7472616e637947756172643a207265656e7472616e742063616c6c00604482015260640161061e565b6002600055565b60006113978284611a3d565b90505b92915050565b60006113978284611a50565b828054828255906000526020600020908101928215611401579160200282015b8281111561140157825182546001600160a01b0319166001600160a01b039091161782556020909201916001909101906113cc565b5061140d92915061144c565b5090565b828054828255906000526020600020908101928215611401579160200282015b82811115611401578251825591602001919060010190611431565b5b8082111561140d576000815560010161144d565b60006020828403121561147357600080fd5b5035919050565b604080825283519082018190526000906020906060840190828701845b828110156114bc5781516001600160a01b031684529284019290840190600101611497565b5050508381038285015284518082528583019183019060005b818110156114f1578351835292840192918401916001016114d5565b5090979650505050505050565b6000815180845260005b8181101561152457602081850181015186830182015201611508565b506000602082860101526020601f19601f83011685010191505092915050565b6001600160a01b0389168152610100602082018190526000906115698382018b6114fe565b9050828103604084015261157d818a6114fe565b90508760608401528660808401528560a084015282810360c08401526115a381866114fe565b91505082151560e08301529998505050505050505050565b634e487b7160e01b600052604160045260246000fd5b600082601f8301126115e257600080fd5b813567ffffffffffffffff808211156115fd576115fd6115bb565b604051601f8301601f19908116603f01168101908282118183101715611625576116256115bb565b8160405283815286602085880101111561163e57600080fd5b836020870160208301376000602085830101528094505050505092915050565b60008060008060008060c0878903121561167757600080fd5b86356001600160a01b038116811461168e57600080fd5b9550602087013567ffffffffffffffff808211156116ab57600080fd5b6116b78a838b016115d1565b965060408901359150808211156116cd57600080fd5b6116d98a838b016115d1565b9550606089013594506080890135935060a08901359150808211156116fd57600080fd5b5061170a89828a016115d1565b9150509295509295509295565b60008151808452602080850194506020840160005b838110156117515781516001600160a01b03168752958201959082019060010161172c565b509495945050505050565b60008151808452602080850194506020840160005b8381101561175157815187529582019590820190600101611771565b600060208083018184528085518083526040925060408601915060408160051b87010184880160005b838110156118a557888303603f19018552815180516001600160a01b0316845261014088820151818a8701526117ee828701826114fe565b915050878201518582038987015261180682826114fe565b606084810151908801526080808501519088015260a0808501519088015260c080850151888303828a0152919350915061184083826114fe565b9250505060e0808301518683038288015261185b8382611717565b925050506101008083015186830382880152611877838261175c565b925050506101208083015192506118918187018415159052565b5095880195935050908601906001016117b6565b509098975050505050505050565b600181811c908216806118c757607f821691505b60208210810361118457634e487b7160e01b600052602260045260246000fd5b634e487b7160e01b600052603260045260246000fd5b601f821115611949576000816000526020600020601f850160051c810160208610156119265750805b601f850160051c820191505b8181101561194557828155600101611932565b5050505b505050565b815167ffffffffffffffff811115611968576119686115bb565b61197c8161197684546118b3565b846118fd565b602080601f8311600181146119b157600084156119995750858301515b600019600386901b1c1916600185901b178555611945565b600085815260208120601f198616915b828110156119e0578886015182559484019460019091019084016119c1565b50858210156119fe5787850151600019600388901b60f8161c191681555b5050505050600190811b01905550565b634e487b7160e01b600052601160045260246000fd5b600060018201611a3657611a36611a0e565b5060010190565b8082018082111561139a5761139a611a0e565b8181038181111561139a5761139a611a0e56fea2646970667358221220a038fb84844e26ca8d46e340f57584440181e8ea7643ffba2f0a6df7797cdc2a64736f6c63430008170033",
  "linkReferences": {},
  "deployedLinkReferences": {}
}