{
  "_format": "hh-sol-artifact-1",
  "contractName": "CrowdFunding",
  "sourceName": "contracts/CrowdFunding.sol",
  "abi": [
    {
      "inputs": [
        {
          "internalType": "address",
          "name": "_wethGatewayAddress",
          "type": "address"
        },
        {
          "internalType": "address",
          "name": "_aavePoolAddress",
          "type": "address"
        }
      ],
      "stateMutability": "nonpayable",
      "type": "constructor"
    },
    {
      "anonymous": false,
      "inputs": [
        {
          "indexed": true,
          "internalType": "uint256",
          "name": "campaignId",
          "type": "uint256"
        },
        {
          "indexed": true,
          "internalType": "address",
          "name": "owner",
          "type": "address"
        }
      ],
      "name": "CampaignCreated",
      "type": "event"
    },
    {
      "anonymous": false,
      "inputs": [
        {
          "indexed": true,
          "internalType": "uint256",
          "name": "campaignId",
          "type": "uint256"
        },
        {
          "indexed": true,
          "internalType": "address",
          "name": "donor",
          "type": "address"
        },
        {
          "indexed": false,
          "internalType": "uint256",
          "name": "amount",
          "type": "uint256"
        }
      ],
      "name": "DonationReceived",
      "type": "event"
    },
    {
      "anonymous": false,
      "inputs": [
        {
          "indexed": false,
          "internalType": "uint256",
          "name": "amount",
          "type": "uint256"
        }
      ],
      "name": "FundsInvested",
      "type": "event"
    },
    {
      "anonymous": false,
      "inputs": [
        {
          "indexed": false,
          "internalType": "uint256",
          "name": "amount",
          "type": "uint256"
        }
      ],
      "name": "FundsReclaimed",
      "type": "event"
    },
    {
      "inputs": [],
      "name": "aavePool",
      "outputs": [
        {
          "internalType": "address",
          "name": "",
          "type": "address"
        }
      ],
      "stateMutability": "view",
      "type": "function"
    },
    {
      "inputs": [
        {
          "internalType": "uint256",
          "name": "",
          "type": "uint256"
        }
      ],
      "name": "campaigns",
      "outputs": [
        {
          "internalType": "address",
          "name": "owner",
          "type": "address"
        },
        {
          "internalType": "string",
          "name": "title",
          "type": "string"
        },
        {
          "internalType": "string",
          "name": "description",
          "type": "string"
        },
        {
          "internalType": "uint256",
          "name": "target",
          "type": "uint256"
        },
        {
          "internalType": "uint256",
          "name": "deadline",
          "type": "uint256"
        },
        {
          "internalType": "uint256",
          "name": "amountCollected",
          "type": "uint256"
        },
        {
          "internalType": "string",
          "name": "image",
          "type": "string"
        },
        {
          "internalType": "bool",
          "name": "claimed",
          "type": "bool"
        }
      ],
      "stateMutability": "view",
      "type": "function"
    },
    {
      "inputs": [
        {
          "internalType": "uint256",
          "name": "_id",
          "type": "uint256"
        }
      ],
      "name": "claimFunds",
      "outputs": [],
      "stateMutability": "nonpayable",
      "type": "function"
    },
    {
      "inputs": [
        {
          "internalType": "uint256",
          "name": "_id",
          "type": "uint256"
        }
      ],
      "name": "claimRefund",
      "outputs": [],
      "stateMutability": "nonpayable",
      "type": "function"
    },
    {
      "inputs": [],
      "name": "contractAdmin",
      "outputs": [
        {
          "internalType": "address",
          "name": "",
          "type": "address"
        }
      ],
      "stateMutability": "view",
      "type": "function"
    },
    {
      "inputs": [
        {
          "internalType": "string",
          "name": "_title",
          "type": "string"
        },
        {
          "internalType": "string",
          "name": "_description",
          "type": "string"
        },
        {
          "internalType": "uint256",
          "name": "_target",
          "type": "uint256"
        },
        {
          "internalType": "uint256",
          "name": "_deadline",
          "type": "uint256"
        },
        {
          "internalType": "string",
          "name": "_image",
          "type": "string"
        }
      ],
      "name": "createCampaign",
      "outputs": [
        {
          "internalType": "uint256",
          "name": "",
          "type": "uint256"
        }
      ],
      "stateMutability": "nonpayable",
      "type": "function"
    },
    {
      "inputs": [
        {
          "internalType": "uint256",
          "name": "_id",
          "type": "uint256"
        }
      ],
      "name": "donateToCampaign",
      "outputs": [],
      "stateMutability": "payable",
      "type": "function"
    },
    {
      "inputs": [
        {
          "internalType": "uint256",
          "name": "",
          "type": "uint256"
        },
        {
          "internalType": "address",
          "name": "",
          "type": "address"
        }
      ],
      "name": "fundedAmount",
      "outputs": [
        {
          "internalType": "uint256",
          "name": "",
          "type": "uint256"
        }
      ],
      "stateMutability": "view",
      "type": "function"
    },
    {
      "inputs": [],
      "name": "getCampaigns",
      "outputs": [
        {
          "components": [
            {
              "internalType": "address",
              "name": "owner",
              "type": "address"
            },
            {
              "internalType": "string",
              "name": "title",
              "type": "string"
            },
            {
              "internalType": "string",
              "name": "description",
              "type": "string"
            },
            {
              "internalType": "uint256",
              "name": "target",
              "type": "uint256"
            },
            {
              "internalType": "uint256",
              "name": "deadline",
              "type": "uint256"
            },
            {
              "internalType": "uint256",
              "name": "amountCollected",
              "type": "uint256"
            },
            {
              "internalType": "string",
              "name": "image",
              "type": "string"
            },
            {
              "internalType": "address[]",
              "name": "donators",
              "type": "address[]"
            },
            {
              "internalType": "uint256[]",
              "name": "donations",
              "type": "uint256[]"
            },
            {
              "internalType": "bool",
              "name": "claimed",
              "type": "bool"
            }
          ],
          "internalType": "struct CrowdFunding.Campaign[]",
          "name": "",
          "type": "tuple[]"
        }
      ],
      "stateMutability": "view",
      "type": "function"
    },
    {
      "inputs": [
        {
          "internalType": "uint256",
          "name": "_id",
          "type": "uint256"
        }
      ],
      "name": "getDonators",
      "outputs": [
        {
          "internalType": "address[]",
          "name": "",
          "type": "address[]"
        },
        {
          "internalType": "uint256[]",
          "name": "",
          "type": "uint256[]"
        }
      ],
      "stateMutability": "view",
      "type": "function"
    },
    {
      "inputs": [],
      "name": "invest",
      "outputs": [],
      "stateMutability": "payable",
      "type": "function"
    },
    {
      "inputs": [
        {
          "internalType": "address",
          "name": "",
          "type": "address"
        }
      ],
      "name": "isVerifiedCreator",
      "outputs": [
        {
          "internalType": "bool",
          "name": "",
          "type": "bool"
        }
      ],
      "stateMutability": "view",
      "type": "function"
    },
    {
      "inputs": [],
      "name": "numberOfCampaigns",
      "outputs": [
        {
          "internalType": "uint256",
          "name": "",
          "type": "uint256"
        }
      ],
      "stateMutability": "view",
      "type": "function"
    },
    {
      "inputs": [],
      "name": "owner",
      "outputs": [
        {
          "internalType": "address",
          "name": "",
          "type": "address"
        }
      ],
      "stateMutability": "view",
      "type": "function"
    },
    {
      "inputs": [
        {
          "internalType": "uint256",
          "name": "amount",
          "type": "uint256"
        }
      ],
      "name": "reclaim",
      "outputs": [],
      "stateMutability": "nonpayable",
      "type": "function"
    },
    {
      "inputs": [
        {
          "internalType": "address",
          "name": "_creator",
          "type": "address"
        },
        {
          "internalType": "bool",
          "name": "_status",
          "type": "bool"
        }
      ],
      "name": "setCreatorVerified",
      "outputs": [],
      "stateMutability": "nonpayable",
      "type": "function"
    },
    {
      "inputs": [],
      "name": "wethGateway",
      "outputs": [
        {
          "internalType": "contract IWETHGateway",
          "name": "",
          "type": "address"
        }
      ],
      "stateMutability": "view",
      "type": "function"
    },
    {
      "stateMutability": "payable",
      "type": "receive"
    }
  ],
  "bytecode": "0x60c06040523480156200001157600080fd5b5060405162001d8c38038062001d8c833981016040819052620000349162000090565b600160005560048054336001600160a01b031991821681179092556006805490911690911790556001600160a01b039182166080521660a052620000c8565b80516001600160a01b03811681146200008b57600080fd5b919050565b60008060408385031215620000a457600080fd5b620000af8362000073565b9150620000bf6020840162000073565b90509250929050565b60805160a051611c826200010a6000396000818161031001528181610973015261144c015260008181610366015281816109a801526114810152611c826000f3fe6080604052600436106101025760003560e01c80635b7baf6411610095578063a03e4bc311610064578063a03e4bc3146102fe578063a6b0363314610332578063c5e10eef14610354578063d4e3dd6f14610388578063e8b5e51f146103a857600080fd5b80635b7baf64146102665780636a66f79c1461028657806377955245146102a65780638da5cb5b146102de57600080fd5b80631ddd206f116100d15780631ddd206f146101bb5780632dabbeed146101f357806342a4fda81461021357806350dcf8271461022657600080fd5b806307ca140d1461010e5780630fa91fa914610137578063141961bc146101655780631b55e3381461019957600080fd5b3661010957005b600080fd5b34801561011a57600080fd5b5061012460025481565b6040519081526020015b60405180910390f35b34801561014357600080fd5b50610157610152366004611569565b6103b0565b60405161012e929190611582565b34801561017157600080fd5b50610185610180366004611569565b6104aa565b60405161012e98979695949392919061164c565b3480156101a557600080fd5b506101b96101b4366004611569565b610691565b005b3480156101c757600080fd5b506101246101d63660046116df565b600360209081526000928352604080842090915290825290205481565b3480156101ff57600080fd5b506101b961020e366004611569565b6108d8565b6101b9610221366004611569565b610a40565b34801561023257600080fd5b5061025661024136600461170b565b60056020526000908152604090205460ff1681565b604051901515815260200161012e565b34801561027257600080fd5b506101b9610281366004611569565b610bc8565b34801561029257600080fd5b506101b96102a136600461172d565b610daa565b3480156102b257600080fd5b506004546102c6906001600160a01b031681565b6040516001600160a01b03909116815260200161012e565b3480156102ea57600080fd5b506006546102c6906001600160a01b031681565b34801561030a57600080fd5b506102c67f000000000000000000000000000000000000000000000000000000000000000081565b34801561033e57600080fd5b50610347610e3a565b60405161012e91906117df565b34801561036057600080fd5b506102c67f000000000000000000000000000000000000000000000000000000000000000081565b34801561039457600080fd5b506101246103a33660046119a8565b6111f8565b6101b96113c7565b60608060025483106103dd5760405162461bcd60e51b81526004016103d490611a44565b60405180910390fd5b600083815260016020908152604091829020600781018054845181850281018501909552808552909360089092019284919083018282801561044857602002820191906000526020600020905b81546001600160a01b0316815260019091019060200180831161042a575b505050505091508080548060200260200160405190810160405280929190818152602001828054801561049a57602002820191906000526020600020905b815481526020019060010190808311610486575b5050505050905091509150915091565b6001602081905260009182526040909120805491810180546001600160a01b03909316926104d790611a7b565b80601f016020809104026020016040519081016040528092919081815260200182805461050390611a7b565b80156105505780601f1061052557610100808354040283529160200191610550565b820191906000526020600020905b81548152906001019060200180831161053357829003601f168201915b50505050509080600201805461056590611a7b565b80601f016020809104026020016040519081016040528092919081815260200182805461059190611a7b565b80156105de5780601f106105b3576101008083540402835291602001916105de565b820191906000526020600020905b8154815290600101906020018083116105c157829003601f168201915b50505050509080600301549080600401549080600501549080600601805461060590611a7b565b80601f016020809104026020016040519081016040528092919081815260200182805461063190611a7b565b801561067e5780601f106106535761010080835404028352916020019161067e565b820191906000526020600020905b81548152906001019060200180831161066157829003601f168201915b5050506009909301549192505060ff1688565b610699611510565b60025481106106ba5760405162461bcd60e51b81526004016103d490611a44565b600081815260016020526040902080546001600160a01b031633146107215760405162461bcd60e51b815260206004820152601860248201527f4f6e6c7920746865206f776e65722063616e20636c61696d000000000000000060448201526064016103d4565b80600401544210156107755760405162461bcd60e51b815260206004820152601860248201527f43616d706169676e206973207374696c6c20616374697665000000000000000060448201526064016103d4565b8060030154816005015410156107cd5760405162461bcd60e51b815260206004820152601860248201527f43616d706169676e20746172676574206e6f74206d65742e000000000000000060448201526064016103d4565b600981015460ff161561081b5760405162461bcd60e51b8152602060048201526016602482015275233ab732399030b63932b0b23c9031b630b4b6b2b21760511b60448201526064016103d4565b60098101805460ff19166001179055600581015481546040516000916001600160a01b03169083908381818185875af1925050503d806000811461087b576040519150601f19603f3d011682016040523d82523d6000602084013e610880565b606091505b50509050806108c85760405162461bcd60e51b81526020600482015260146024820152734661696c656420746f2073656e642066756e647360601b60448201526064016103d4565b5050506108d56001600055565b50565b6006546001600160a01b031633146109025760405162461bcd60e51b81526004016103d490611aaf565b6000811161095c5760405162461bcd60e51b815260206004820152602160248201527f416d6f756e74206d7573742062652067726561746572207468616e207a65726f6044820152601760f91b60648201526084016103d4565b604051630402806960e51b81526001600160a01b037f000000000000000000000000000000000000000000000000000000000000000081166004830152602482018390523060448301527f000000000000000000000000000000000000000000000000000000000000000016906380500d2090606401600060405180830381600087803b1580156109ec57600080fd5b505af1158015610a00573d6000803e3d6000fd5b505050507f6246f936423733335c7889317bcefc2fe71363b2b87691f815e8367851010f2e81604051610a3591815260200190565b60405180910390a150565b610a48611510565b6002548110610a695760405162461bcd60e51b81526004016103d490611a44565b3480610aae5760405162461bcd60e51b81526020600482015260146024820152730446f6e6174696f6e206d757374206265203e20360641b60448201526064016103d4565b600082815260016020526040902060048101544210610b055760405162461bcd60e51b815260206004820152601360248201527221b0b6b830b4b3b7103430b99032b73232b21760691b60448201526064016103d4565b600781018054600181810183556000928352602080842090920180546001600160a01b03191633179055600884018054918201815583529120018290556005810154610b52908390611afe565b6005820155600083815260036020908152604080832033845290915281208054849290610b80908490611afe565b9091555050604051828152339084907f0b5b4c52969ff7329ecf7ee536409fda87812b15a8622bc6e8cdeab3aee14a269060200160405180910390a350506108d56001600055565b610bd0611510565b6002548110610bf15760405162461bcd60e51b81526004016103d490611a44565b600081815260016020526040902060048101544211610c525760405162461bcd60e51b815260206004820152601760248201527f446561646c696e6520686173206e6f742070617373656400000000000000000060448201526064016103d4565b8060030154816005015410610ca95760405162461bcd60e51b815260206004820152601a60248201527f54617267657420776173206d65742c206e6f20726566756e647300000000000060448201526064016103d4565b600082815260036020908152604080832033845290915290205480610d055760405162461bcd60e51b8152602060048201526012602482015271139bc8199d5b991cc81d1bc81c99599d5b9960721b60448201526064016103d4565b60008381526003602090815260408083203380855292528083208390555183908381818185875af1925050503d8060008114610d5d576040519150601f19603f3d011682016040523d82523d6000602084013e610d62565b606091505b50509050806108c85760405162461bcd60e51b81526020600482015260146024820152732330b4b632b2103a379039b2b7321022ba3432b960611b60448201526064016103d4565b6004546001600160a01b03163314610e0f5760405162461bcd60e51b815260206004820152602260248201527f4f6e6c792041646d696e2063616e20706572666f726d2074686973206163746960448201526137b760f11b60648201526084016103d4565b6001600160a01b03919091166000908152600560205260409020805460ff1916911515919091179055565b6060600060025467ffffffffffffffff811115610e5957610e59611905565b604051908082528060200260200182016040528015610eeb57816020015b610ed860405180610140016040528060006001600160a01b0316815260200160608152602001606081526020016000815260200160008152602001600081526020016060815260200160608152602001606081526020016000151581525090565b815260200190600190039081610e775790505b50905060005b6002548110156111f2576000818152600160208181526040928390208351610140810190945280546001600160a01b031684529182018054929392849284019190610f3b90611a7b565b80601f0160208091040260200160405190810160405280929190818152602001828054610f6790611a7b565b8015610fb45780601f10610f8957610100808354040283529160200191610fb4565b820191906000526020600020905b815481529060010190602001808311610f9757829003601f168201915b50505050508152602001600282018054610fcd90611a7b565b80601f0160208091040260200160405190810160405280929190818152602001828054610ff990611a7b565b80156110465780601f1061101b57610100808354040283529160200191611046565b820191906000526020600020905b81548152906001019060200180831161102957829003601f168201915b5050505050815260200160038201548152602001600482015481526020016005820154815260200160068201805461107d90611a7b565b80601f01602080910402602001604051908101604052809291908181526020018280546110a990611a7b565b80156110f65780601f106110cb576101008083540402835291602001916110f6565b820191906000526020600020905b8154815290600101906020018083116110d957829003601f168201915b505050505081526020016007820180548060200260200160405190810160405280929190818152602001828054801561115857602002820191906000526020600020905b81546001600160a01b0316815260019091019060200180831161113a575b50505050508152602001600882018054806020026020016040519081016040528092919081815260200182805480156111b057602002820191906000526020600020905b81548152602001906001019080831161119c575b50505091835250506009919091015460ff16151560209091015283518490849081106111de576111de611b25565b602090810291909101015250600101610ef1565b50919050565b3360009081526005602052604081205460ff16151560011461126b5760405162461bcd60e51b815260206004820152602660248201527f4441414e3a2043616c6c6572206973206e6f74206120766572696669656420636044820152653932b0ba37b960d11b60648201526084016103d4565b4283116112c85760405162461bcd60e51b815260206004820152602560248201527f54686520646561646c696e652073686f756c6420626520696e207468652066756044820152643a3ab9329760d91b60648201526084016103d4565b6000841161130d5760405162461bcd60e51b81526020600482015260126024820152710546172676574206d757374206265203e20360741b60448201526064016103d4565b600254600081815260016020819052604090912080546001600160a01b0319163317815590810161133e8982611b8c565b506002810161134d8882611b8c565b50600381018690556004810185905560006005820155600681016113718582611b8c565b5060098101805460ff1916905560025461138c906001611afe565b600255604051339083907f633109eec20320eded000fc1e2634211aa7e92ba3f5b15faf6dcdafca05094e490600090a3509695505050505050565b6006546001600160a01b031633146113f15760405162461bcd60e51b81526004016103d490611aaf565b47806114355760405162461bcd60e51b8152602060048201526013602482015272273790333ab73239903a379034b73b32b9ba1760691b60448201526064016103d4565b60405163474cf53d60e01b81526001600160a01b037f000000000000000000000000000000000000000000000000000000000000000081166004830152306024830152600060448301527f0000000000000000000000000000000000000000000000000000000000000000169063474cf53d9083906064016000604051808303818588803b1580156114c657600080fd5b505af11580156114da573d6000803e3d6000fd5b50505050507f13a6b60e1baaf5c7ab3253113820bba7a9f6231303d6c0b650e60a033aae685a81604051610a3591815260200190565b6002600054036115625760405162461bcd60e51b815260206004820152601f60248201527f5265656e7472616e637947756172643a207265656e7472616e742063616c6c0060448201526064016103d4565b6002600055565b60006020828403121561157b57600080fd5b5035919050565b604080825283519082018190526000906020906060840190828701845b828110156115c45781516001600160a01b03168452928401929084019060010161159f565b5050508381038285015284518082528583019183019060005b818110156115f9578351835292840192918401916001016115dd565b5090979650505050505050565b6000815180845260005b8181101561162c57602081850181015186830182015201611610565b506000602082860101526020601f19601f83011685010191505092915050565b6001600160a01b0389168152610100602082018190526000906116718382018b611606565b90508281036040840152611685818a611606565b90508760608401528660808401528560a084015282810360c08401526116ab8186611606565b91505082151560e08301529998505050505050505050565b80356001600160a01b03811681146116da57600080fd5b919050565b600080604083850312156116f257600080fd5b82359150611702602084016116c3565b90509250929050565b60006020828403121561171d57600080fd5b611726826116c3565b9392505050565b6000806040838503121561174057600080fd5b611749836116c3565b91506020830135801515811461175e57600080fd5b809150509250929050565b60008151808452602080850194506020840160005b838110156117a35781516001600160a01b03168752958201959082019060010161177e565b509495945050505050565b60008151808452602080850194506020840160005b838110156117a3578151875295820195908201906001016117c3565b600060208083018184528085518083526040925060408601915060408160051b87010184880160005b838110156118f757888303603f19018552815180516001600160a01b0316845261014088820151818a87015261184082870182611606565b91505087820151858203898701526118588282611606565b606084810151908801526080808501519088015260a0808501519088015260c080850151888303828a015291935091506118928382611606565b9250505060e080830151868303828801526118ad8382611769565b9250505061010080830151868303828801526118c983826117ae565b925050506101208083015192506118e38187018415159052565b509588019593505090860190600101611808565b509098975050505050505050565b634e487b7160e01b600052604160045260246000fd5b600082601f83011261192c57600080fd5b813567ffffffffffffffff8082111561194757611947611905565b604051601f8301601f19908116603f0116810190828211818310171561196f5761196f611905565b8160405283815286602085880101111561198857600080fd5b836020870160208301376000602085830101528094505050505092915050565b600080600080600060a086880312156119c057600080fd5b853567ffffffffffffffff808211156119d857600080fd5b6119e489838a0161191b565b965060208801359150808211156119fa57600080fd5b611a0689838a0161191b565b955060408801359450606088013593506080880135915080821115611a2a57600080fd5b50611a378882890161191b565b9150509295509295909350565b60208082526017908201527f43616d706169676e20646f6573206e6f74206578697374000000000000000000604082015260600190565b600181811c90821680611a8f57607f821691505b6020821081036111f257634e487b7160e01b600052602260045260246000fd5b6020808252602f908201527f4f6e6c792074686520636f6e7472616374206f776e65722063616e2063616c6c60408201526e103a3434b990333ab731ba34b7b71760891b606082015260800190565b80820180821115611b1f57634e487b7160e01b600052601160045260246000fd5b92915050565b634e487b7160e01b600052603260045260246000fd5b601f821115611b87576000816000526020600020601f850160051c81016020861015611b645750805b601f850160051c820191505b81811015611b8357828155600101611b70565b5050505b505050565b815167ffffffffffffffff811115611ba657611ba6611905565b611bba81611bb48454611a7b565b84611b3b565b602080601f831160018114611bef5760008415611bd75750858301515b600019600386901b1c1916600185901b178555611b83565b600085815260208120601f198616915b82811015611c1e57888601518255948401946001909101908401611bff565b5085821015611c3c5787850151600019600388901b60f8161c191681555b5050505050600190811b0190555056fea2646970667358221220fbaaa4e828d929de3932509098068ed35e0806c94399fab13eb5beec45871b9f64736f6c63430008170033",
  "linkReferences": {},
  "deployedLinkReferences": {}
}